:020000020000FC
:0200000055C0E9
:0800040078D0189591D01895F1
:04001000ADD01895C2
:1000AC000FEF0DBF0AE00EBF0FEF04B900E005B96A
:1000BC0000E00AB90FEF0BB90AE8009369000BE0F6
:1000CC000DBB01EF0093800009E00093810000E973
:1000DC0005B911270027009389001093880000931D
:1000EC008B0010938A007894FFCF0F930FB70F9368
:1000FC004AE056D01FEF33273093890010938800C5
:10010C0030938B0010938A0005B1007F312F3F7024
:10011C00032B05B90BE00CBB0F910FBF0F9108958A
:10012C000F930FB70F934AE03BD0009188000F3F1D
:10013C0089F001E130E0100F3093890010938800B2
:10014C0030938B0010938A0005B1007F312F3F70E4
:10015C00032B05B90BE00CBB0F910FBF0F9108954A
:10016C000F930FB70F934AE01BD00091880000301B
:10017C0089F001E130E0101B309389001093880066
:10018C0030938B0010938A0005B1007F312F3F70A4
:10019C00032B05B90BE00CBB0F910FBF0F9108950A
:1001AC004F937F938F9380EE7DEE7A95F1F78A953E
:0E01BC00D9F74A95C1F78F917F914F91089521
:00000001FF
