S01D00004368726973526F636B6574745F31305F50617274322E737265634A
S11300000C9456000C9460000C9460000C946000F6
S11300100C9460000C9460000C9460000C946000DC
S11300200C9460000C9460000C9460000C946000CC
S11300300C9460000C9460000C9460000C946000BC
S11300400C9460000C9460000C9460000C946000AC
S11300500C9460000C9460000C9460000C9460009C
S11300600C9460000C9460000C9460000C9460008C
S11300700C9460000C9460000C9460000C9460007C
S11300800C9460000C9460000C9460000C9460006C
S11300900C9460000C9460000C9460000C9460005C
S11300A00C9460000C9460000C94600011241FBE3A
S11300B0CFEFDAE0DEBFCDBF0E9462000C949D005A
S11300C00C94000080EF84B99FEC9AB990E39BB93B
S11300D085B990E930E820E195B989B184FD15C06E
S11300E015B84FEF57EA81E6415050408040E1F7A0
S11300F000C0000025B94FEF53ED80E3415050405C
S11301008040E1F700C00000E7CF8073803121F721
S113011015B84FEF57EA81E6415050408040E1F76F
S113012000C0000035B94FEF53ED80E3415050401B
S11101308040E1F700C00000CFCFF894FFCF6D
S9030000FC
