:020000020000FC
:0200000055C0E9
:1000AC000FEF0DBF00E10EBF222410D0000025D0B1
:1000BC0000003CD0000051D0000066D0000083D07E
:1000CC000000BAD00000D1D00000FFCF0F930FB7C3
:1000DC000F93E2E4F3E0C0E1D1E0059109930491C0
:1000EC000883E4E4F3E0C2E1D1E0059109930491C3
:1000FC0008830F910FBF0F9108950F930FB70F93B4
:10010C003F93A0E1B1E0C2E1D1E0E0E2F1E00D917A
:10011C003991300F31930C913881301F319308F4A1
:10012C00B0833F910F910FBF0F9108950F930FB7AD
:10013C000F93E6E4F3E0C0E3D1E005910993049159
:10014C000883E8E4F3E0C2E3D1E00591099304915C
:10015C0008830F910FBF0F9108950F930FB70F9353
:10016C003F93A0E3B1E0C2E3D1E0E0E4F1E00D9114
:10017C003991031B01930C913881030B01933F912F
:10018C000F910FBF0F9108950F930FB70F93EAE4E0
:10019C00F3E0C0E5D1E00591099304910993ECE4F7
:1001AC00F3E004910883EEE4F3E0C3E5D1E00591BC
:1001BC00099304910993E0E5F3E0049108830F910E
:1001CC000FBF0F9108953F924F921F920F922F9253
:1001DC00BF93AF93DF93CF93FF93EF931F932F9323
:1001EC00C3E5D1E0E0E6F1E013E0A0E5B1E023E007
:1001FC003D904880349C31904190030C141C3190FC
:10020C00321C4080421C40823292129202923196F1
:10021C002A9571F7329721961A9539F72F911F91DC
:10022C00EF91FF91CF91DF91AF91BF912F900F90F4
:10023C001F904F903F900895E2E5F3E0C0E3D1E0CA
:10024C000591099304910883E4E5F3E0C2E3D1E05E
:10025C000591099304910883E6E5F3E0C2E1D1E04E
:10026C000591099304910883089577DFE0E4F1E0A8
:10027C00C0E1D1E00191099300810883E0E2F1E053
:10028C0023E0002701932A95E9F737DFE0E2F1E05C
:10029C00C0E5D1E001910993019109930081088394
:1002AC00E0E2F1E0C3E5D1E00191099301910993FA
:1002BC0000810883E0E6F1E0002726E001932A950F
:1002CC00E9F781DF08953F924F921F920F922F9280
:1002DC00BF93AF93DF93CF93FF93EF931F932F9322
:1002EC002224C2E0D1E0E4E0F1E012E0A0E0B1E0D1
:1002FC0022E03D904880349C31904190030C141CBA
:10030C003080321C30821292029231962A9589F7F3
:10031C00319721961A9551F72F911F91EF91FF91DB
:10032C00CF91DF91AF91BF912F900F901F904F9075
:10033C003F9008950895BAFCFFFFB9FC20E4FFFF3D
:0C034C00FF00FFFFFF00BAFC2220BB21D5
:00000001FF
